S123010010CE8000BD011ABDE853C611BD031B8E0420BD0268BD034020FE7FC0027FC00084
S1230120398601B7C0023986FDB7C0027FC0023934091A5086C01F8B53860358970284FEED
S12301408900970284FD97028A021258970284FE8900970284FD97028A021258970284FE01
S12301608900970284FD97028A021258970284FE8900970284FD97028A021258970284FEE1
S12301808900970284FD97028A021258970284FE8900970284FD97028A021258970284FEC1
S12301A08900970284FD97028A021258970284FE8900970284FD97028A021212970284FEE7
S12301C0970284FD970212128A0297028A019702358934091A5086C01F8B8D2986039702CE
S12301E084FD970212128A029702358934091A5086C01F8B8D0F4F970212128A0297028AEC
S123020001970235895F96028A02970284FE97020F029600448602970259120F02960044E9
S12302208602970259120F029600448602970259120F029600448602970259120F02960099
S1230240448602970259120F029600448602970259120F029600448602970259120F029635
S123026000448602970259393410BD0121C6D0BD0130C600BD0130BD0127BD0121C6D1BD10
S12302800130BD01D2E780BD01D2E780BD01D2E780BD01D2E780BD01D2E780BD01D2E7805F
S12302A0BD01ECE784BD01273590BD0121C6D0BD0130C600BD0130E680BD0130E680BD01EC
S12302C030E680BD0130E680BD0130E680BD0130E680BD0130E680BD0130BD0127393402F2
S12302E0BD0121C6D0BD01303504BD0130BD0127BD0121C6D1BD0130BD01ECBD012739342B
S123030006BD0121C6D0BD01303504BD01303504BD0130BD012739860720C3860720E08681
S1230320008DBBC47F860020D686008DB1CA80860020CC86008DA75D26031CFB391A04394B
S12303401F12E62358588E04003A8604BDE0DFE625C5102704C40FCB0A58588E03CC3A865D
S123036004BDE0DFE624BDE0F3BDE0BEC632AD9F000EC630AD9F000EE626BDE0F3BDE0BE6B
S1230380E622C5402627C43FBDE0F3C63AAD9F000EE621BDE0F3C63AAD9F000EE620C47FD8
S12303A0BDE0F3E622C5402608BDE0B239C41F20D71F98BDE0BEC64185202702C650AD9FC3
S12303C0000EC64DAD9F000EBDE0B2393F3F3F204A616E20466562204D6172204170722050
S12303E04D6179204A756E204A756C2041756720536570204F6374204E6F762044656320D0
S12304003F3F3F2053756E204D6F6E205475652057656420546875204672692053617420F3
S10A042000000000000000D1
S9030000FC
