S123010010CE8000BD01C4BDE8538E069DBDE0CA8E067BBF0689C6038E0692BD062EBDE091
S1230120B2BD04CAF706908E06ACBDE0CAC6038E0692BD062EBDE0B2BD04CAF7068F8E0670
S1230140BABDE0CAC6038E0692BD062EBDE0B2BD04CAF706918E06C9BDE0CAC6028E069280
S1230160BD062EBDE0B2BD04CAF7068E8E06E6BDE0CAC6038E0692BD062EBDE0B2BD04CA8A
S1230180F7068D8E06F4BDE0CAC6038E0692BD062EBDE0B2BD04CAF7068C8E0706BDE0CA9D
S12301A0C6038E0692BD062EBDE0B2BD04CAC47FF7068B8E068BBD03548E0696BD0312BDCA
S12301C003EA20FE7FC0027FC000398601B7C0023986FDB7C0027FC0023934091A5086C0BB
S12301E01F8B53860358970284FE8900970284FD97028A021258970284FE8900970284FD12
S123020097028A021258970284FE8900970284FD97028A021258970284FE8900970284FD40
S123022097028A021258970284FE8900970284FD97028A021258970284FE8900970284FD20
S123024097028A021258970284FE8900970284FD97028A021258970284FE8900970284FD00
S123026097028A021212970284FE970284FD970212128A0297028A019702358934091A5091
S123028086C01F8B8D298603970284FD970212128A029702358934091A5086C01F8B8D0F3E
S12302A04F970212128A0297028A01970235895F96028A02970284FE97020F02960044867F
S12302C002970259120F029600448602970259120F029600448602970259120F029600443B
S12302E08602970259120F029600448602970259120F029600448602970259120F029600D9
S1230300448602970259120F029600448602970259393410BD01CBC6D0BD01DAC600BD01EC
S1230320DABD01D1BD01CBC6D1BD01DABD027CE780BD027CE780BD027CE780BD027CE78010
S1230340BD027CE780BD027CE780BD0296E784BD01D13590BD01CBC6D0BD01DAC600BD0106
S1230360DAE680BD01DAE680BD01DAE680BD01DAE680BD01DAE680BD01DAE680BD01DAE6C5
S123038080BD01DABD01D1393402BD01CBC6D0BD01DA3504BD01DABD01D1BD01CBC6D1BD4F
S12303A001DABD0296BD01D1393406BD01CBC6D0BD01DA3504BD01DA3504BD01DABD01D11F
S12303C039860720C3860720E086008DBBC47F860020D686008DB1CA80860020CC86008DC3
S12303E0A75D26031CFB391A04391F12E62358588E04AA3A8604BDE0DFE625C5102704C4F0
S12304000FCB0A58588E04763A8604BDE0DFE624BDE0F3BDE0BEC632AD9F000EC630AD9F73
S1230420000EE626BDE0F3BDE0BEE622C5402627C43FBDE0F3C63AAD9F000EE621BDE0F3D5
S1230440C63AAD9F000EE620C47FBDE0F3E622C5402608BDE0B239C41F20D71F98BDE0BEB6
S1230460C64185202702C650AD9F000EC64DAD9F000EBDE0B2393F3F3F204A616E2046657D
S123048062204D617220417072204D6179204A756E204A756C2041756720536570204F633D
S12304A074204E6F7620446563203F3F3F2053756E204D6F6E20547565205765642054685E
S12304C075204672692053617420CC00003406E680C1302534C1392204C0302016C14125D7
S12304E028C1462204C037200AC161251CC1662218C057686169E4686169E4686169E468FD
S12305006169E4EA61E76120C6301F35061CFD39CC000034043406E684C12D26046C623016
S123052001E680C130251EC139221AC030340468626961EC6158495849E361EBE48900ED12
S123054061350420DC301F35066DE427054353C3000132611CFD391F984D2A0BC62DAD9F43
S1230560000E4020021F988164240E810A24171F89CB306E9F000E1F98C62F5C806424FBAA
S1230580AD9F000E8B64C62F5C800A24FBAD9F000E8B3A1F896E9F000E4D2A113404C62D7F
S12305A0AD9F000E35044353C300012000340510832710241A108303E8242C108300642400
S12305C03EC10A24523262CB306E9F000E3405C62FE7E4E6616CE483271024F9C32710E7A6
S12305E061E6E4AD9F000EC62FE7E4E6616CE48303E824F9C303E8E761E6E4AD9F000EC6B0
S12306002FE7E4E6616CE483006424F9C30064E761E6E4AD9F000EA661C62F5C800A24FBAD
S1230620AD9F000E8B3A1F8932626E9F000E34105A3A3410AE62AD9F0010C10A2731C10DC7
S1230640272DC1082716C17F2712AD9F068929E6AC602CE2AD9F000EE78020DAAC6227D6F9
S1230660BDE0C4BDE0BEBDE0C4C600E78220C7C600E78032623510391CFD39C1302507C1D4
S10E06803922031CFD391A02390678E8
S123069D4D6F6E74683F2028312D3132292000446174653F2028312D333129200059656173
S12306BD723F202830302D3939292000446179206F66207765656B3F2028313D53756E2CA2
S12306DD20373D536174292000486F75723F2028302D32332920004D696E757465733F2080
S11E06FD2830302D35392920005365636F6E64733F202830302D3539292000D8
S9030000FC
