S123010010CE8000CC03DBFD0008BDE1208E0ABBBDE154BD098CB6CC0ECC4000F7CC01B762
S1230120CC018E0B1B5FBDE163CC4900F7CC01B7CC018E131BC640BDE163CC4800F7CC01E2
S1230140B7CC0186008E0008BDE131CC6000F7CC01B7CC0186F08E0020BDE1318E0AC3BDAD
S1230160E1C38E165B9F9E0FA0CC071CFDCC02CC0A10FDCC02CC2710BD0A4DBD05120F98EF
S1230180C604BD052E0F90CC0000DD8597879789978A979997A24C97848602979D1CEFCC12
S12301A0E281B7CC01F7CC017E028BD6975CC41FD7972064D6975A20F5CE151BD6975858F0
S12301C033C5ECC147564756F31711FD1711ECC447564756F31713FD1713BD09382043D697
S12301E093C5102649BD06E82744108E170BD697BD070BCC165DDD9E202E7F170BBD09BFE4
S1230200CAF8D798863097892024D690C5012612850426978508269CD690C50326108501AC
S123022026979691851026B79691852026CC390D8A27040A8A270C9689273E810127230A8A
S1230240892036D68E5CC1062502C606D78EBD052E86F0979A9799969C979B0F8ABD09460C
S123026020D50D872713BD06AF260EBD09460F89969A9799BD05D10F98D690C501260B0D69
S12302809927070A992603BD061C398DA2BD0369BD093F96910D84260A7D170B2A25BD02BD
S12302A00A200C85801027001ABD04DA7E02C3D6975858CB40F717158E1711BD03C4300219
S12302C0BD03C47D17172A20B617197D171D2B0681FD2506200981022305BD066A20097F87
S12302E01717BD0977BD069E8E17176D002A1D7D170B2A07108E170BBD07658C1717270C18
S12303007D17172A07108E1717BD0765300C8C18D326D83402108E16C36D202721A621848A
S123032003A7E48E170B6D002A0DA601A1E42707BD073D6D202707300C8C18D326E8312CA3
S1230340108C170B26D335028E16C36D0027068D2C8D378D56300C8C18D326EF0C90DC9179
S1230360DD93BD089F137E028B0A8B260F968F488B0A813C2502863C978B038C39EC06E356
S123038002ED02EC08E304ED0439CCFFBFA00BE00BDD80A60481F8240B9181230DCC000086
S12303A0ED04200696814A5FED04396D0027142B126A00E60AC1C0250AA60085032604CB26
S12303C004E70A39EC84475647564756475647564756DD80EC849380ED8439B6CC01CC50A4
S12303E000F7CC01B7CC019690850126298E16C36D002714A604B7CC00A602B7CC00A60A9F
S1230400B7CC00860FB7CC00300C8C18D326E186D0B7CC0020278E18C76D002714A604B7ED
S1230420CC00A602B7CC00A60AB7CC00860FB7CC0030148C16C324E186D0B7CC008E0080E1
S12304409685BD04CEED849686BD04CEED02C6038630A18026056F1F5A26F7CC5421F7CC0F
S123046001B7CC0186048E0080E680F7CC004A26F8C630F7CC00CC5440F7CC01B7CC0186E3
S123048006C65E918723015FF7CC004A26F3969D270C4A27114A27184A271D4A27250F9D2C
S12304A0BD0A75DD913BCC14009EA3BDE1C520EE8E0ADEBDE1C320E68E0AD2BDE1C3BDE17B
S12304C0C320DB8E0AEBBDE1C3BDE1C320D01F89C40F44444444C3303039BD0512C603D7CA
S12304E08ED79CD787CC0000DD85DD91DD93C610D78897A29784979886309789978A860454
S1230500979D398E17239F956F00300C8C18D326F7398E16C320F19E958C18D32705330C69
S1230520DF95398601979D8E0B049FA320FEBD05038E1723340486073DD78FE6E48DD88DA1
S123054055300C6AE426F635843410A60B471F89AB02EB04DD80A60B81102706810C2709DA
S12305603590CC100CDD822005CC2008DD828602D6835734068DA0DC82ED0A9680A0615F89
S1230580ED029681A0615FED04CCFF10ED008D226AE426E13596CCFF10ED00BD09BFC43E1A
S12305A0CE161BECC5A7026F03E7046F05CC0010ED0ABD09BF3404C47CCE159B33C5ECC11A
S12305C0ED06ECC4ED083504C4035858EB0AE70A398E170BCCFF02ED009698272281F81046
S12305E0270200BD09BFC1EF2502C6EFE7026F03BD09BFC1AF2502C6AFE7046F05200ACC7C
S12306007800ED02CC5800ED04CC0000ED06ED080D982607CC4010ED0A0F97398E1717CC5A
S1230620FF01ED00CC0000ED08ED020D9B27130A9BCC00A0ED06CC300EED0ACE169DDFA032
S1230640200FCC00D0ED06CC340AED0ACE16B3DFA0BD09BF1F9858CB1EE7046F054D2A0668
S1230660600763066302BD0970399690853F27169690857F270139BD09BFC406CE0B13ECF9
S1230680C5FD171F20F0BD06FB27E5BD09BFC41F108E1717BD070BCC167BDD9E20D20D8426
S12306A0260C969A815A2304800F979A9799390D9826258E17236D002A17A6028150251194
S12306C081A0220DA60481302507818022031CFB39300C8C18D326DE1A04398E16C36F00E5
S12306E0300C8C170B26F7398E16C36D002709300C8C16F326F54F391CFB398E16F36D00EA
S123070027F6300C8C170B26F520EBCE151B585833C5ECC15849ED06ECC45849ED08EC226D
S1230720E306C30600ED02EC24E308C30600ED04CC3800ED0ACC5008EA21ED00396D002A78
S123074023A602A122221DA604A1242217A602AB0BA122250FA604AB0BA12425076F20BD2E
S1230760080B203939A62B471F89AB22EB24DD80A602800391802224A60480039181221CD8
S1230780A602AB0B8B0391802512A604AB0B8B03918125088D758D051F218D0139CC00008D
S12307A0ED06ED088610A00B475FDD80EC029380ED02EC049380ED04A6018502262581012A
S12307C0271981102607BD05490A8F273386C0A70A8610A700E60BBD097E39BD0977BD0677
S12307E09E20EA86D0A70A0F980F998630A700BD0957C610BD097E0A872766866097893906
S12308008660978A0F99BD095720C2A62185022718A60B1CFE8110271B810E270D810C2784
S123082017810A270981082713398620201086991A01200A8602200686052002861099869C
S12308401997868600998519978591882512D687C1FF270C0C8786109B88199788BD095E3D
S1230860398603979D9784394F5858C35000F7CC01B7CC01A680B7CC00A680B7CC00A68058
S1230880B7CC00A680B7CC0039C12024114F5858C35000F7CC01B7CC0186D0B7CC00390D60
S12308A09E27239E9EEC81270F2B179F9EBD0A23CC080FFDCC02200E0F9ECC0800FDCC02DC
S12308C02004308B9F9E96A2858026138540262B8520263D85102646CC0900FDCC023996F4
S12308E08D8504260BCC0900FDCC020A8D277A39CC0029BD0A31CC090F20ED9EA0EC812BE8
S12309000C9FA0BD0A31CC090FFDCC0239308B20ECCC0800BD0A31CC090FFDCC0239968B0C
S1230920810422B4CC05400D8C2603C30058BD0A31CC090FFDCC023996A28A2097A23996A0
S1230940A284DF97A23996A28510260A8A1097A20F8C8604978B3996A284EF97A23996A277
S12309608A8097A28658978D3996A2847F97A23996A28A4097A23996A284BF97A2395A5835
S12309808606FDCC02CC0D00FDCC0239CC1234FD0A0DCC5678FD0A0F39740A0D760A0E7681
S12309A00A0F760A1034012414FC0A0D88D0C800FD0A0DFC0A0F8800C801FD0A0F35813272
S12309C07F8DD666E48DD266E48DCE66E48DCA66E48DC666E48DC266E48DBE66E48DBA6680
S12309E0E43584810123244A3402C6095A4824FC3404327EA662A7616FE48D9D69E46A61EF
S1100A0026F8E6E4E16322EC3264395F3944
S1230A11CC073FFDCC0239FDCC0239B7CC02B6CC023934028600FDCC024C3504FDCC023955
S1230A3134028602FDCC024C3504FDCC023934028604FDCC024C3504FDCC02393402860BB4
S1230A51FDCC024C3504FDCC0239B6CC0EC60FF7CC02F6CC0253C41F860EB7CC02B6CC026C
S1230A7143841F39327EB6CC06860EB7CC02B6CC024384304848A7E4860FB7CC02B6CC02BD
S1230A914384304848A761B6CC0E860EB7CC02B6CC0243843FAAE4A7E4860FB7CC02B6CCCA
S1230AB10243843FAA61A7613586008205800120000116CA22232425262728292A2B2C2D68
S1230AD10014CB47414D45204F56455200164B505553482053544152540014CB20202020FE
S1230AF1202020202000164B20202020202020202020004F5554204F46204F424A4543541C
S1230B1153000000FF6000A000000708102040C0300C3040804143252911F0080402010120
S1230B31010101010101020408F00814224180808080808080804020100F20588601020499
S1230B51080804040201020408F0041A618040402020404080808245281018244281010623
S1230B71080404020201028468101F0804FE808080808080402023140800F0080402010680
S1230B91186018060102048850201F2040806010204082462A1300000000804020101010C7
S1230BB11010102040800000000010294680808080808040201F00000000C0201020404082
S1230BD12020102040800000000018658240202040808046291000000000C0201020404002
S1230BF1202010204080000000007F2010F88080808080462910000000008040201060803A
S1230C11402010204080000000003C42816141895A2C0000000000000000000000000000BF
S1230C3100000000000000000000265982848281423C000000000000000000000000000099
S1230C51000000000000000000006699424482815A24000000000000000000000000000079
S1230C71000000000000000000007C22F182828159260000000000000000000000000000CC
S1230C91000000000000000000000304040F3040FF40300F000000000000008080C030083F
S1230CB1FC0830C00000000000000C123F40FF403F00000000000000000000000080C08050
S1230CD10000000000000000000040E040000000000000000000000000000000000000009F
S1230CF10000000000000000000000000000000000000000000000000000000000000000DF
S1230D1100000000000000000000000000181708080808081718000000000000000000C078
S1230D31380638C0000000000000000000003E11080808080B0C080000000000000000F8E2
S1230D51061820C000000000000000000000003F10080804050604000000000000003CC40E
S1230D710830408000000000000000000000000F701008040405020200000000000CF810AA
S1230D9110204080800000000000000000000106186018040202010100000000186890100D
S1230DB1202040408080000000000000000001020C10601C020100000000001030E0202060
S1230DD1204040404080808000000000000101020408103C0300000000000060A02020407F
S1230DF14040404040C040000000000001010204040808103F000000000080804040404033
S1230E1140402020A0602000000001010202020404080808171800000000000080808040C6
S1230E3140202020D03000000000020205050404040408080B0C08000000000000008040F0
S1230E5140202010F80000000000000C0A090904040404040506040000000000000000802A
S1230E71402010788000000000000010180E0908080404040403020200000000000000800F
S1230E9160100C708000000000000000302C1310080804040202010100000000000000C074
S1230EB1300C3040808000000000000000603E11100804020201000000000000000000E0C1
S1230ED11C102040404080800000000000007847201804020100000000000000000000F8FB
S1230EF11020204040C04000000000000000003FC030080601000000000000000000F810C7
S1230F1120202020A0602000000000000000010638C0380601000000000000000030D020BE
S1230F3120202020D030000000000000000001060830C03F00000000000000002060A0209E
S1230F5120202010F8000000000000000000010204182047780000000000000040C0404096
S1230F71202010F8000000000000000000010202040810113E600000000000808040404084
S1230F9120101CE000000000000000010102020404080810132C3000000000000080804033
S1230FB1300C30C000000000000000020203040404040808090E181000000000000080709A
S1230FD10C1060800000000000000000040605040404040409090A0C0000000000008078BD
S1230FF1102040800000000000000000080C0B080804040404050502020000000000F81097
S1231011202040408000000000000000001817080808040402020201010000000030D02004
S123103120204040808080000000000000003F100808040402010100000000002060A020B0
S12310512040404040404080800000000000033C10080402010100000000000040C04040FC
S1231071404040402020A060000000000001021C60100C020100000000000080808040407D
S12310914040202020E030100000000101020204186018060100000000000000008080405A
S12310B1402020109068180000000002020504040810700F000000000000000000008080D3
S12310D140201010F80C000000000000040605040808103F00000000000000000000008085
S12310F1403008C43C00000000000000080C0B08080808113E00000000000000000000C015
S1231111201806F80000000000000000000002010005010204000000000000000000004035
S1231131E0C0F040200000000000000000000012000008001001080000000000004008002F
S123115100000010000820000000000000042000002400020020080200000020000004802A
S12311710040000880000410000000080080000000800000004400002002200000024000AE
S1231191000000020000200100080000000000010102020400030000000000000000000002
S12311B100404020A0000000000000000000000101020204000300000000000000000000CD
S12311D100404020A00000000000000000000102020400000201000000000000000000406E
S12311F12020100040000000000000000000010202040000020100000000000000000040FE
S12312112020100040000000000000000000020C1000201001040000000000000000004096
S12312312020100080600000000000000000020C10002010010400000000000000000040D6
S123125120201000806000000000000000020C100040404000060100000000000000002044
S123127118040000081080000000000000020C1000404040000601000000000000000020A0
S12312911804000008108000000000041820000000808040000018060000000010080804C7
S12312B100000000040810200000000418200000008080400000180600000000100808041F
S12312D100000000040810200000408000000000000000000000402010000002010000008A
S12312F100000000000000020C104080000000000000000000004020100000020100000088
S123131100000000000000020C10000000000000000010101010100010000088D9AA8B8A1A
S12313310000008F4222E222000000BE080808080000000302030003000000E205E82FE8D2
S12313510000003E22BEA4A20000008BCAAA9A8B000000EF282F28E8000000BE203C202040
S12313710000000300030203000000EF28E808EF000000929292929200000000000000007D
S123139110000204081020408000FE8282828282FE001010101010101000FE0202FE808034
S12313B1FE00FE0202FE0202FE00828282FE02020200FE8080FE0202FE00808080FE82820E
S12313D1FE00FE02020202020200FE8282FE8282FE00FE8282FE02020200001000000010C8
S12313F10000001000000010200004081020100804000000FE00FE0000004020100810209C
S12314114000FE02021E10001000FE82BAAABE80FE0010284482FE828200FC8282FC828217
S1231431FC00FE8080808080FE00F88482828284F800FE8080F88080FE00FE8080F88080B7
S12314518000FE8280808E82FE00828282FE82828200FE1010101010FE0002020202824247
S12314713E00828488F088848200808080808080FE0082C6AA928282820082C2A2928A867D
S12314918200FE8282828282FE00FE8282FE80808000FE8282828A84FA00FE8282FEB08CE7
S12314B18200FE8080FE0202FE00FE10101010101000828282828282FE0082824444282853
S12314D1100082828292AAC6820082442810284482008244281010101000FE040810204049
S12314F1FE003820202020203800804020100804020038080808080838001010282844443B
S1231511BAC6000000000000FE000100000000FBFFCE00EDFF9E00D5FF7200B5FF4B008E12
S1231531FF2B0062FF130032FF050000FF00FFCEFF05FF9EFF13FF72FF2BFF4BFF4BFF2BEA
S1231551FF72FF13FF9EFF05FFCEFF000000FF050032FF130062FF2B008EFF4B00B5FF72B4
S123157100D5FF9E00EDFFCE00FB00000100003200FB006200ED008E00D500B500B500D510
S1231591008E00ED006200FB003200FBFFCE00FBFFCE00EDFF9E00D5FF7200B5FF4B008E3F
S12315B1FF2B0062FF130032FF05FFCEFF05FFCEFF05FF9EFF13FF72FF2BFF4BFF4BFF2B98
S12315D1FF72FF13FF9EFF05FFCEFF050032FF050032FF130062FF2B008EFF4B00B5FF72FD
S12315F100D5FF9E00EDFFCE00FB003200FB003200FB006200ED008E00D500B500B500D564
S1231611008E00ED006200FB00320000180030004800600078009000A800C000D80000195A
S12316310032004B0064007D0096EF19EF32EF4BEF64EF7DEF9600AF18AF30AF48AF60AF9F
S123165178AF90AFA8AFC0AFD8AF00000099009D00A700AD00B600C100CA00DE00E9010629
S1231671011E0144017F01D9000000970098009A009B009C009D00A100A600A900AA00ADB3
S123169100AF00B000B300BA00BF000000E200AA008B0077006A006000580067008300AE62
S11516B1FFEA0099007600640058004F00530093FFF04B
S9030000FC
